:100000000C9434000C9449000C9449000C94490061
:100010000C9449000C9449000C9449000C9449003C
:100020000C9449000C9449000C9449000C9449002C
:100030000C9449000C9449000C9449000C9449001C
:100040000C9449000C9449000C9449000C9449000C
:100050000C9449000C9449000C9449000C944900FC
:100060000C9449000C94490011241FBECFEFD8E036
:10007000DEBFCDBF11E0A0E0B1E0E2E0F1E002C000
:1000800005900D92AC30B107D9F70E944B000C944B
:100090007F000C940000E0910801F09109018FEFBE
:1000A0008083E0910201F09103018083A6E0B1E03A
:1000B0001496ED91FC9115978FEF8083E0E0F1E0CD
:1000C000C481D58188832FEF89E698E12150804053
:1000D0009040E1F700C0000014960D90BC91A02D57
:1000E0001C920480F581E02D10822FEF89E698E1C3
:1000F000215080409040E1F700C00000D7CFF89435
:02010000FFCF2F
:0C01020023002400250029002A002B0007
:00000001FF
